:020000040800F2
:100000002828002021020008290200082B020008ED
:100010002D0200082F020008310200080000000035
:10002000000000000000000000000000890100083E
:100030003502000800000000CD0100081508000886
:100040003B0200083B0200083B0200083B0200089C
:100050003B0200083B0200086D0400083B02000858
:100060003B0200083B0200083B0200083B0200087C
:100070003B0200083B0200083B0200083B0200086C
:100080003B0200083B0200083B0200083B0200085C
:100090003B0200083B0200083B0200083B0200084C
:1000A0003B0200083B0200083B0200083B0200083C
:1000B0003B0200083B0200083B0200083B0200082C
:1000C0003B0200083B0200083B0200083B0200081C
:1000D0003B0200083B0200083B0200083B0200080C
:1000E0003B0200083B0200083B02000800F002F857
:1000F00000F03AF80AA090E8000C82448344AAF188
:100100000107DA4501D100F02FF8AFF2090EBAE885
:100110000F0013F0010F18BFFB1A43F0010318473B
:10012000EC2000000C210000103A24BF78C878C1F0
:10013000FAD8520724BF30C830C144BF04680C60ED
:10014000704700000023002400250026103A28BF35
:1001500078C1FBD8520728BF30C148BF0B60704739
:100160001FB51FBD10B510BD00F045F91146FFF7D2
:10017000F7FF00F08DFB00F063F903B4FFF7F2FF27
:1001800003BC00F06BF90000224B19680868B0E866
:10019000F00F80F30988BFF36F8F4FF0000080F3FA
:1001A00011884EF00D0E70470000000006480068F0
:1001B000006880F3088862B661B6BFF34F8FBFF363
:1001C0006F8F00DF00BF00BF08ED00E0EFF3098094
:1001D000BFF36F8F0F4B1A6820E9F00F106008B55E
:1001E0004FF0500080F31188BFF34F8FBFF36F8F34
:1001F00001F0C8FA4FF0000080F31188BDE8084014
:1002000019680868B0E8F00F80F30988BFF36F8FB2
:10021000704700BF04000020EFF305807047000026
:100220000948804709480047FEE7FEE7FEE7FEE78A
:10023000FEE7FEE7FEE7FEE7FEE7FEE704480549C6
:10024000054A064B7047000041080008ED00000811
:1002500028220020282800202824002028240020EC
:10026000032A40F2308010F0030C00F0158011F8E2
:10027000013BBCF1020F624498BF11F801CB00F8BA
:10028000013B38BF11F8013BA2F1040298BF00F80E
:1002900001CB38BF00F8013B11F0030300F0798077
:1002A000083AC0F0088051F8043B083A51F804CBF2
:1002B000A0E80810F5E7121D5CBF51F8043B40F8B8
:1002C000043BAFF30080D20724BF11F8013B11F8C3
:1002D00001CB48BF11F8012B24BF00F8013B00F807
:1002E00001CB48BF00F8012B704702F0FF0343EA3F
:1002F000032242EA024200F002B84FF00002042951
:10030000C0F0128010F0030C00F01B80CCF1040C44
:10031000BCF1020F18BF00F8012BA8BF20F8022B78
:10032000A1EB0C0100F00DB85FEAC17C24BF00F81E
:10033000012B00F8012B48BF00F8012B70474FF04C
:10034000000200B5134694469646203922BFA0E825
:100350000C50A0E80C50B1F12001BFF4F7AF090731
:1003600028BFA0E80C5048BF0CC05DF804EB890022
:1003700028BF40F8042B08BF704748BF20F8022B65
:1003800011F0804F18BF00F8012B7047704770477D
:10039000704710B5203AC0F00B80B1E81850203AF1
:1003A000A0E81850B1E81850A0E81850BFF4F5AF15
:1003B0005FEA027C24BFB1E81850A0E8185044BF9F
:1003C00018C918C0BDE810405FEA827C24BF51F80C
:1003D000043B40F8043B08BF7047D20728BF31F800
:1003E000023B48BF11F8012B28BF20F8023B48BF51
:1003F00000F8012B7047754600F02CF8AE4605005A
:100400006946534620F00700854618B020B5FFF72F
:1004100015FFBDE820404FF000064FF000074FF0F9
:1004200000084FF0000B21F00701AC46ACE8C00912
:10043000ACE8C009ACE8C009ACE8C0098D4670471B
:1004400010B50446AFF300802046BDE81040FFF72A
:1004500094BE000000487047C421002001491820C4
:10046000ABBEFEE7260002007047000008B5012081
:1004700000F024F8002815D0002000900A480068F9
:1004800010B1694601F090FA012000F011F80098CF
:10049000002807D005494FF080500860BFF34F8F08
:1004A000BFF36F8F08BD00000000002004ED00E0E6
:1004B0000149086070470000140401400146002013
:1004C000054A12680A40044B14331B680B4202D0E1
:1004D000002A00D0012070470004014030B51B4ABB
:1004E00083790168002B2AD013688B431360111D98
:1004F0000B680468A3430B60017911440B6804681E
:1005000023430B60114C0834216803689943216030
:10051000231D19680568A94319604179102905D080
:1005200011440A68006802430A6030BD216802680D
:1005300011432160196800680143196030BD0079DA
:10054000104402688A43026030BD0000000401408C
:1005500010B58A07120F0F23934021F003040549B9
:1005600021448C689C438C608B68904003438B6073
:1005700010BD0000000001402DE9F0410022CC78C0
:1005800004F00F03E40601D58C7823430C784FF078
:100590000F0714F0FF0F4FF0010C1CD005680CFA88
:1005A00002F40E882640A64211D1960007FA06F8FA
:1005B00025EA080503FA06F848EA0505CE78282E4C
:1005C00002D0482E02D002E0446100E00461521CD7
:1005D000082AE4D305600A88FF2A1ED9456800224C
:1005E00002F108060CFA06F40E882640A64210D145
:1005F000960007FA06F825EA080503FA06F848EA1D
:100600000505CE78282E00D14461CE78482E00D141
:100610000461521C082AE3D34560BDE8F08102461C
:100620000020D2680A4200D001207047002A01D081
:1006300001617047416170477FB50121052000F0DD
:1006400081F80625ADF80C5010208DF80F0003201E
:100650008DF80E001C4E03A93046FFF78DFF0022D7
:1006600002213046FFF7E2FF002204213046FFF767
:10067000DDFF0124ADF80C4048218DF80F1003A9CF
:100680003046FFF779FF00210846FFF761FF01942C
:1006900000268DF808600C208DF809008DF80A40BE
:1006A00001A8FFF71BFFE80100F042F88DF80050A9
:1006B00005208DF801008DF802608DF80340684632
:1006C00000F004F87FBD00000008014070B50F2362
:1006D000C27801260178002A1ED0144A126802F45A
:1006E000E062C2F5E062120AC2F10404D340457828
:1006F000A54082781A402A43120101F1E02181F8D5
:100700000024007800F01F018E404009800000F1B5
:10071000E020C0F8006170BD01F01F00864048096C
:10072000800000F1E020C0F8806170BD0CED00E0B9
:100730000249084302490860704700000000FA05BA
:100740000CED00E0054A002903D091690143916155
:100750007047916981439161704700000010024029
:10076000AFF300800CB50022019200922748016887
:1007700041F4803101604FF4A063016801F400315D
:1007800000910199491C0191009911B9019999426F
:10079000F3D10168890302D50121009100E00092A4
:1007A0000099012930D11A490A6842F010020A6002
:1007B0000A6822F007020A600A6842F002020A6030
:1007C0004168416041684160416841F48061416035
:1007D000416821F47C114160416841F4E8114160B5
:1007E000016841F08071016001688901FCD54168B0
:1007F00021F003014160416841F00201416041681C
:10080000C1F381010229FAD10CBD000000100240A1
:100810000020024010B5502080F31188BFF34F8FA5
:10082000BFF36F8F01F0D4FA18B104494FF0805034
:100830000860002080F3118810BD000004ED00E086
:1008400010B50F48016841F00101016041680D4A8F
:100850001140416001680C4A11400160016821F4B7
:1008600080210160416821F4FE0141604FF41F01C5
:100870008160FFF775FF05494FF00060086010BD0B
:10088000001002400000FFF8FFFFF6FE08ED00E058
:100890001CB5FFF7D1FE03220021012001F002F870
:1008A0000C490860A0B100240120CDE900042346D2
:1008B000802209A10B4801F067FA0220CDE900046B
:1008C0000023802208A10B4801F05EFA00F028FF07
:1008D000FEE7000000000020426C696E6B4C45444E
:1008E00000000000BD120008416C65727454617311
:1008F0006B000000E51200082DE9F0470446894628
:100900001C4DEE686F6BD5F838802868001D00F02C
:10091000BDFC601C17D1B9F1000F14D0164948680E
:100920002A68906083682A68D3602A688368121DE9
:100930005A602A68121D8260286841610868401C5C
:100940000860BDE8F087344428684460B44206D2A9
:1009500029684046BDE8F047091D00F0F5BC29684C
:100960003846091D00F0F0FCA86A8442E9D2AC6266
:10097000E7E70000040000208801002070B504466D
:1009800000F0FAFC244DA868401CA860286810B14B
:10099000686938B10CE02C60A868012808D100F023
:1009A000B1F905E02868E16AC06A884200D82C6085
:1009B000686A401C6862A064E06A2969884200D9BC
:1009C0002861164A00EB800002EB80004068A060BE
:1009D0008168E1608368211D59608160E06A00EBF5
:1009E000800002EB8001616152F82010491C42F83E
:1009F000201000F0E1FC686900280CD02868E16A4A
:100A0000C06A884207D206494FF080500860BFF3A1
:100A10004F8FBFF36F8F70BD04000020D400002003
:100A200004ED00E010B500F0A7FC0E4C2068A0B962
:100A30000D4800F07BFC0C48143000F077FC0A48AD
:100A4000E0601430206100220C210A2000F02AFF0F
:100A5000206010B105A100F045FDBDE8104000F098
:100A6000ABBC0000440000209C010020546D72517A
:100A70000000000070B50C4D0C4E11E000F07CFC45
:100A8000F068C468201D00F001FCA868401EA86042
:100A90006868401E686000F08FFC204600F072F825
:100AA00068680028EAD170BD0400002074010020AD
:100AB00030B40B46026C002A0CD0C1681144C160EE
:100AC0008468A14201D30168C160C16830BC184686
:100AD000FFF7C6BB30BC704770B588B0002003AAD2
:100AE0000DA1095C115411B1401C1428F8DB00243D
:100AF0000B4E00250B4806EB8401CDE90051002385
:100B0000802203A901F040F9002802D0641C012CC6
:100B1000F0DB08B070BD000049444C450000000007
:100B200040000020190C00082DE9FF5F8146DDE937
:100B30000E788A4616469B46B00000F0EDFA054650
:100B400028000ED07C2000F0E7FA04462CB17C216E
:100B50002046FFF7F4FB256304E0284600F042FC42
:100B600000E0002454B10020CDE90240CDE9007836
:100B70005B4632465146484600F073F804B02046C2
:100B8000BDE8F09F10B50446206B00F02BFC20461A
:100B9000BDE8104000F026BC416A002904D0006B7B
:100BA0000068C0F105007047002070470749CA6817
:100BB0001168002904D00021016019B1002070479C
:100BC0000121F9E7D0680068704700004400002068
:100BD0004FF400510E48420706D0C01D20F0070018
:100BE0000B49411AC1F500510A4A106000235360B5
:100BF0000144083921F00701143A11604B600B6081
:100C00000B1A4360016040689060506070470000BC
:100C1000C40100206C000020074E4FF08054074DA7
:100C2000FFF728FF30680128FAD92C60BFF34F8FF7
:100C3000BFF36F8FF4E70000D400002004ED00E064
:100C400070B51D46049C002909D02260E063216430
:100C50000121204600F04EFE84F84C5070BD246007
:100C6000F4E72DE9F0478146DDE908680A9C0D4666
:100C700017469A46B900A522206BFFF736FB206B7A
:100C80007F1E00EB870020F00707780707D0502071
:100C900080F31188BFF34F8FBFF36F8FFEE765B10D
:100CA00000202218295C82F83410295C11B1401C04
:100CB0001428F6D3002084F84700052E07D35020CF
:100CC00080F31188BFF34F8FBFF36F8FFEE7E662AB
:100CD0002665201D00F035FB04F1180000F031FB03
:100CE0002461C6F10500A061646252464946384657
:100CF00000F0BEFA2060B8F1000F01D0C8F8004043
:100D0000BDE8F08770B50024124D04EB840005EBBC
:100D1000800000F00BFB641C052CF6D30D486430FA
:100D200000F004FB0B48783000F000FB09488C30E1
:100D300000F0FCFA0748A03000F0F8FA0548B4309B
:100D400000F0F4FA034904486431416314318163CB
:100D500070BD0000D40000200400002030B51B4905
:100D600000E011460A688242FBD3184B99420DD02D
:100D7000174B994202D3174B994207D9502080F361
:100D80001188BFF34F8FBFF36F8FFEE74B685C187E
:100D9000844203D140681844486008460D6843689F
:100DA0001C18AC420DD1094C143C2468A24206D058
:100DB00052681A4442600A681268026002E00460E5
:100DC00000E00260814200D0086030BD6C0000206D
:100DD000C4010020C321002070B5002441600061DF
:100DE0000C4D91420AD8D11A8269914201D3012453
:100DF0000EE0011D286900F0A7FA09E09A4203D22B
:100E0000994201D3012403E0011DE86800F09CFA37
:100E1000204670BD4400002010B5044600F0ACFA36
:100E2000A06B20B1002400F0C7FA204610BD0124B9
:100E3000F9E7000070B505460E460D48C068C06869
:100E4000C468201D00F022FA94F82800410705D557
:100E500032462946204600F0B9F803E000F0FE00D3
:100E600084F828002046216ABDE870400847000049
:100E7000440000207FB50020019002900390374E7F
:100E800063E00198002860DB039C606910B1201DBD
:100E900000F0FCF9684600F0BDF8054601980A2804
:100EA00053D2DFE800F0520505282E460505282E0E
:100EB00094F8280040F0010084F828000298A16905
:100EC000034601442A462046FFF786FF40B394F8C4
:100ED0002800410707D50298A1692A460144204607
:100EE00000F074F803E000F0FE0084F82800216AA6
:100EF0002046884729E014F8280F00F0FE002070F3
:100F000023E094F8280040F0010084F828000298BB
:100F1000A06130B141192B462A462046FFF75CFFFD
:100F200013E0502080F31188BFF34F8FBFF36F8F12
:100F3000FEE794F82800810703D4204600F052FA17
:100F400003E000F0FE0084F82800002201A93068C8
:100F500000F08AFD002894D17FBD000044000020ED
:100F6000F8B506460D4600F005FC684600F052F85C
:100F70000446009810B101F085F8F8BD45B9A642C5
:100F800006D801F07FF821463046FFF753FFF8BD41
:100F90000C481DB10169096891B10025311B2A4631
:100FA000006800F0C5FA01F06DF80028EFD106499D
:100FB0004FF080500860BFF34F8FBFF36F8FF8BDC5
:100FC0000125EBE74400002004ED00E070B5054684
:100FD0000C46164604E0A8690444296A2846884756
:100FE000A8692346011932462846FFF7F5FE002876
:100FF000F1D170BD0648416B0968002904D0416BEE
:10100000C9680968816270474FF0FF31816270479B
:101010000400002070B5054600F0D4FE0446074EDB
:10102000B068844204D200F00BF80120286001E08F
:1010300000202860B460204670BD000044000020FD
:1010400070B5094C4FF0FF3504E0C06800682946D0
:10105000FFF7F0FEE0680268002AF6D1E068216937
:10106000E160206170BD0000440000200948406834
:10107000401C07D0502080F31188BFF34F8FBFF37F
:101080006F8FFEE7502080F31188BFF34F8FBFF3BF
:101090006F8FFEE77400002008B56846FFF786FDF5
:1010A0000099FFF75DFFFFF7E5FEF6E72DE9F04158
:1010B000044600F061F994F9455004F1240609E072
:1010C000606A48B1304600F06DFF08B100F084FA64
:1010D0006D1E6DB2002DF3DC4FF0FF3684F84560D5
:1010E00000F06AF900F048F994F9445004F110074F
:1010F00009E0206948B1384600F054FF08B100F01B
:101100006BFA6D1E6DB2002DF3DC84F84460BDE80F
:10111000F04100F051B900002DE9F04104460025EE
:10112000002C11D014F1090F0DD8083460070BD032
:1011300004F00700C0F10800C1438C4201D8044408
:1011400002E0002400E0002400F014FB404E306870
:1011500008B9FFF73DFD002C6ADDD6F804C06445F0
:1011600066D83B481430014609683A4FB94202D369
:10117000394B994215D9502080F31188BFF34F8F16
:10118000BFF36F8FFEE708461146B94201D399427B
:1011900007D9502080F31188BFF34F8FBFF36F8FB3
:1011A000FEE74A68A24202D20A68002AEBD13268FE
:1011B00091423DD005680835BD4201D39D4207D913
:1011C000502080F31188BFF34F8FBFF36F8FFEE77E
:1011D0000A6802604A68A24207D2502080F3118850
:1011E000BFF34F8FBFF36F8FFEE7131B102B0FD989
:1011F0000A19570707D0502080F31188BFF34F8F8B
:10120000BFF36F8FFEE753604C60036813600260AA
:101210004A68ACEB02007060B368984200D2B060DC
:1012200042F00040486000200860F068401CF06018
:1012300000F028FF680707D0502080F31188BFF323
:101240004F8FBFF36F8FFEE72846BDE8F0810000A7
:1012500058000020C4010020C3210020034800687A
:10126000002802D0416D491C4165704704000020F0
:1012700020384FF08073C36121F001018161024980
:10128000416140F8202970476D1000080169D0E9DC
:1012900001329A60D0E901235A604A68824201D142
:1012A00082684A60002202610868401E0860704738
:1012B0000148806870470000040000204FF4FA7570
:1012C000074C02212046FFF7AAF9C0F10100C2B283
:1012D00002212046FFF7AAF9284600F04DF9F0E771
:1012E000000801404FF4FA650E4F0F4E4FF0FF38E3
:1012F0004146386800F056FC0128F9D1012204214A
:101300003046FFF793F900F05DFD044600F05AFD0A
:10131000001BA842FAD3002204213046FFF786F9C9
:10132000E6E70000000000200008014000F108018D
:1013300041604FF0FF328260C160016100210160B5
:10134000704700210161704730B50C68621C02D003
:1013500000F1080202E0026904E01A4653681D68C1
:10136000A542FAD953684B6099608A605160086160
:101370000168491C016030BD502080F31188BFF323
:101380004F8FBFF36F8F0A494868401C486001289F
:101390000CD10848006810F0FF0F07D0502080F3F0
:1013A0001188BFF34F8FBFF36F8FFEE770470000C8
:1013B0007400002004ED00E009494868002806D0C8
:1013C000401E4860002801D180F3118870475020EA
:1013D00080F31188BFF34F8FBFF36F8FFEE70000DC
:1013E0007400002070B5002838D0083804461C4826
:1013F000844202D31B48844207D9502080F31188CD
:10140000BFF34F8FBFF36F8FFEE76068002807DBE5
:10141000502080F31188BFF34F8FBFF36F8FFEE72B
:10142000216839B1502080F31188BFF34F8FBFF38B
:101430006F8FFEE720F00040606000F09BF90A4DDE
:1014400060686968084468602046FFF787FC28697F
:10145000401C2861BDE8704000F014BE70BD000063
:10146000C4010020C3210020580000204FF0E020DC
:1014700000210161816105494FF47A720968B1FB6D
:10148000F2F1491E4161072101617047800000208F
:1014900010B5FEF7C1FE114910280ED300F1E0206F
:1014A00090F8F0030A78904207D2502080F3118818
:1014B000BFF34F8FBFF36F8FFEE70948006889685D
:1014C00000F4E060884207D9502080F31188BFF310
:1014D0004F8FBFF36F8FFEE710BD00007400002038
:1014E0000CED00E070B5002300280AD0C9B100223D
:1014F0000E4D05EBC204666886420AD105EBC203B5
:101500000FE0502080F31188BFF34F8FBFF36F8F30
:10151000FEE71BB955F8326006B92346521C082A6B
:10152000E7D3002B01D01960586070BD94000020F3
:1015300070B504460D461646FFF71EFF94F9443079
:101540004FF000005B1C01D184F8440094F9451071
:10155000491C01D184F84500FFF72EFFA06B28B984
:101560003246294604F1240000F056F82046BDE832
:101570007040FFF79BBD000010B502460020002A16
:1015800013D000F0F7F80E48006B012807D0502068
:1015900080F31188BFF34F8FBFF36F8FFEE70021F9
:1015A0001046FFF7A9F900F06DFD002807D10549A5
:1015B0004FF080500860BFF34F8FBFF36F8F10BDA7
:1015C0000400002004ED00E002490A6A0260C968D4
:1015D0004160704704000020014901200860704705
:1015E0002000002010B50C4600280AD009490968DF
:1015F0001831FFF7A9FE2046BDE810400121FFF792
:101600007BB9502080F31188BFF34F8FBFF36F8FEA
:10161000FEE7000004000020F0B40C4600281AD0B9
:101620004168114B1D68E9618D681E6835621D684F
:101630008E68183575601D6818358D601968886268
:101640000168491C01600AB14FF0FF342046F0BC2C
:101650001146FFF751B9502080F31188BFF34F8F27
:10166000BFF36F8FFEE700000400002070B5044652
:1016700000284FD0626DA2B1206D884200D3014690
:10168000E06A884246D0012A44D1234E326894420F
:101690000FD1502080F31188BFF34F8FBFF36F8FAE
:1016A000FEE7502080F31188BFF34F8FBFF36F8F99
:1016B000FEE7E162A269002A02DBC1F10501A16136
:1016C000164D00EB8000616905EB8000814221D15D
:1016D000201DFFF7DBFDE06A3169884200D93061E7
:1016E00000EB800005EB80004068A0608168E1604D
:1016F0008268211D51608160E06A00EB800005EB8B
:1017000080006061E06A00EB800055F82010491C01
:1017100045F8201070BD000004000020D400002017
:1017200010B5FFF7D9F9012801D100F049FD104C9F
:10173000012802D0401C12D00FE0502080F3118805
:10174000BFF34F8FBFF36F8F4FF0FF30A0620120C8
:1017500060610020E06000F04BF8E06A10BD5020AE
:1017600080F31188BFF34F8FBFF36F8FFEE7000048
:10177000040000200248016B491C0163704700000F
:101780000400002010B5184B196B03F11C00002950
:1017900002D00121016010BD0021016018691349C8
:1017A00001E0C8B1401E00EB800251F82220002A5F
:1017B000F7D000EB800201EB82014A6852684A6070
:1017C00001F10804A24201D1CA684A604968C968A7
:1017D00019601861186810BD502080F31188BFF39C
:1017E0004F8FBFF36F8FFEE704000020D40000206E
:1017F0003EB500250195284908780290FF20087021
:10180000087800909DF80000244C00F050002070F3
:1018100000280CD09DF800205020904316D0502076
:1018200080F31188BFF34F8FBFF36F8FFEE7502017
:1018300080F31188BFF34F8FBFF36F8FFEE70198DE
:10184000401C01909DF80000400000909DF80000B1
:101850000006F4D4019808281BD00198C0F10700B5
:10186000A060207A000200F4E060A0609DF808000B
:1018700008700B48016841F47F010160016841F084
:101880007F410160FFF7F2FD6560FEF78FFC0020ED
:101890003EBDA560E5E7000000E400E07400002024
:1018A00020ED00E0F8B505460E461746002D19D08C
:1018B0004FF0FF30B0FBF5F0B04213D305FB06F05C
:1018C00010F1510F0ED85030FFF726FC04463CB102
:1018D000224650323B46314628460094FFF7B0F985
:1018E0002046F8BD502080F31188BFF34F8FBFF31F
:1018F0006F8FFEE72DE9F04104460F460125002CCD
:101900002AD0E06B80B3AE1EB6FBF0F1206C8142B2
:101910003BD3FFF731FDD4E90F20216802FB001112
:10192000A1600021A16321686160E06B2268216CE5
:10193000401E00FB0121E16084F8446084F84560AA
:1019400004F110008FB1FFF7F1FC04F12400FFF760
:10195000EDFCFFF731FD19E0502080F31188BFF353
:101960004F8FBFF36F8FFEE70FE021690029F0D0A2
:1019700000F018FB0028ECD00A494FF080500860B6
:10198000BFF34F8FBFF36F8FE3E7002515B12846F4
:10199000BDE8F081502080F31188BFF34F8FBFF373
:1019A0006F8FFEE704ED00E02DE9F04104460F469D
:1019B000002C09D0206C78B1502080F31188BFF33F
:1019C0004F8FBFF36F8FFEE7502080F31188BFF376
:1019D0004F8FBFF36F8FFEE7206848B9A06838B11A
:1019E000502080F31188BFF34F8FBFF36F8FFEE756
:1019F000FFF74EFD5020EFF3118680F31188BFF3FF
:101A00004F8FBFF36F8FA06BE16B814226D994F9A2
:101A10004550401CA063681C0AD0FFF749FC854272
:101A200004D27F2D12D06D1C84F84550012016E0A1
:101A3000606A0028FAD004F1240000F0B3FA00280C
:101A4000F4D0002FF2D001203860EFE7502080F36F
:101A50001188BFF34F8FBFF36F8FFEE7002086F32F
:101A60001188BDE8F08100002DE9F74783B00446F6
:101A70008A460026002C03D0BAF1000F08D011E0EE
:101A8000502080F31188BFF34F8FBFF36F8FFEE7B5
:101A9000206C38B1502080F31188BFF34F8FBFF313
:101AA0006F8FFEE700F080F948B9059838B15020F3
:101AB00080F31188BFF34F8FBFF36F8FFEE70027CE
:101AC0004FF08058DFF8D890FFF756FCA56BC5B1F2
:101AD00051462046FEF7ECFF6D1EA563206950B10C
:101AE00004F1100000F05EFA28B1C9F80080BFF3DD
:101AF0004F8FBFF36F8FFFF75FFC012006B0BDE88B
:101B0000F087059808B126B107E0FFF755FC0020E3
:101B1000F4E701A8FFF758FD0126FFF74DFCFFF79A
:101B200029FEFFF729FC94F94400401C01D184F8F8
:101B3000447094F94500401C01D184F84570FFF7CA
:101B40003BFC05A901A800F0DFF858B12046FFF7DB
:101B5000ADFA00F097FA2046FFF75EF90028B3D0FF
:101B60000020CBE72046FFF757F990B104F124009D
:101B70000599FFF737FD2046FFF798FA00F082FA43
:101B80000028A1D1C9F80080BFF34F8FBFF36F8F3A
:101B90009AE72046FFF78AFA00F074FA94E700000B
:101BA00004ED00E02DE9F34383B004460025A94687
:101BB000002C09D0206C78B1502080F31188BFF33D
:101BC0004F8FBFF36F8FFEE7502080F31188BFF374
:101BD0004F8FBFF36F8FFEE700F0E6F848B9049827
:101BE00038B1502080F31188BFF34F8FBFF36F8F50
:101BF000FEE700264FF08057DFF80881FFF7BCFBB7
:101C0000A06BC8B1401EA063206810B9FFF726FB87
:101C1000A060206950B104F1100000F0C3F928B1B0
:101C2000C8F80070BFF34F8FBFF36F8FFFF7C4FB8F
:101C3000012005B0BDE8F083049808B125B107E0A4
:101C4000FFF7BAFB0020F4E701A8FFF7BDFC012570
:101C5000FFF7B2FBFFF78EFDFFF78EFB94F9440010
:101C6000401C01D184F8446094F94500401C01D126
:101C700084F84560FFF7A0FB04A901A800F044F830
:101C8000C8B12046FFF712FA00F0FCF92046FFF732
:101C9000C3F80028B2D0B9F1000F0AD0FFF76CFBEF
:101CA0002046FEF779FF0146A068FFF7DFFCFFF74B
:101CB00083FB0020BDE72046FFF7AEF8E0B12068C7
:101CC00038B9FFF759FBA06800F01AF98146FFF711
:101CD00073FB04F124000499FFF784FC2046FFF70E
:101CE000E5F900F0CFF9002888D1C8F80070BFF3FB
:101CF0004F8FBFF36F8F81E72046FFF7D7F900F0D2
:101D0000C1F97BE704ED00E02DE9F04105460C4602
:101D1000002D14D0DCB1FFF72FFB1A4EF0686B6872
:101D2000C11A2268571C1AD02F68D6F820C0002686
:101D3000674516D0834214D8012526601CE0502048
:101D400080F31188BFF34F8FBFF36F8FFEE75020F2
:101D500080F31188BFF34F8FBFF36F8FFEE700252D
:101D60000AE08A4206D9501A20602846FFF72CFC68
:101D7000002501E026600125FFF71EFB2846BDE88F
:101D8000F0810000040000207CB5DDE90654CDE9B7
:101D90000054FEF7C9FE18B1FEF7F0FD01207CBD2E
:101DA0004FF0FF307CBD000005484169002903D099
:101DB000006B18B100207047012070470220704767
:101DC000040000200148C0687047000004000020A3
:101DD0002DE9F0410025484E306B002805D0B06950
:101DE000401CB0612846BDE8F081F468641CF460D2
:101DF0009CB9706B006838B1502080F31188BFF334
:101E00004F8FBFF36F8FFEE7706BB16B7163B06381
:101E1000306A401C3062FFF7EDF8B06A374F8442F9
:101E20000FD34FF0000C706B006838B1706BC06856
:101E3000C1684868844214D2B06202E04FF0FF30BB
:101E4000B0623068C06A00EB800057F820000128BB
:101E500000D9012528481C3000680028C2D001257F
:101E6000C0E74A69D1E902309860D1E902035860BD
:101E700050680B1D984201D1C8685060C1F814C069
:101E80001068401E10608A6A9AB1D1E90780C8F8CC
:101E90000800D1E90708C8F80400506801F11808E3
:101EA000404501D1086A5060C1F828C01068401E42
:101EB0001060C86A3269904200D9306100EB80003E
:101EC00007EB800042688A609068C8609068436051
:101ED0009360C86A00EB800007EB80024A6157F804
:101EE0002020521C47F82020C86A3168C96A8842FD
:101EF00099D9012597E7000004000020D4000020B4
:101F000070B504460020002C3FD0244DE16A2A68B9
:101F1000D26A91423AD2A069002804DB2868C06ADC
:101F2000C0F10500A061E06A1D4E00EB8000616910
:101F300006EB8000814224D1201DFFF7A7F9286815
:101F4000C06AE0622969884200D9286100EB8000FC
:101F500006EB80004068A0608168E1608268211D16
:101F600051608160E06A00EB800006EB80006061F8
:101F7000E06A00EB800056F82010491C46F820105B
:101F800002E02868C06AE062012070BD216D2A6805
:101F9000D26A9142F9D2012070BD000004000020F5
:101FA000D400002030B5C068C06800282CD0816AF9
:101FB000D0E907329A60D0E907235A604B6800F1F4
:101FC0001802934201D1036A4B60002484620B68BB
:101FD0005B1E0B60294B196BF1B1294C6168C16123
:101FE0008D6805628D686A608A6084622168491C18
:101FF0002160C06A1968C96A88423CD901201F4A19
:1020000001211C32116030BD502080F31188BFF3D4
:102010004F8FBFF36F8FFEE74169D0E90252AA608C
:10202000D0E902256A604D68021D954201D1C5685C
:102030004D6044610C68641E0C60C16A1C69A14259
:1020400000D919610E4C01EB81018C3C04EB81013C
:10205000496881608D68C5608D686A608A60C16A00
:1020600001EB810104EB8102426154F82120521CF2
:1020700044F82120BDE7002030BD0000040000200E
:10208000600100202DE9F0470024A246FFF774F913
:102090000025484F386B28B1386B401E3863386BC9
:1020A00040B181E0502080F31188BFF34F8FBFF320
:1020B0006F8FFEE7B868002876D03E4E4FF00008DC
:1020C0003D4A4FF001091C364EE0D068C468A16A51
:1020D000D4E907309860D4E9070358604B6804F1ED
:1020E0001800834201D1206A4860C4F8288008683B
:1020F000401E08606069D4E902319960D4E9021396
:1021000059604368211D8B4201D1E3684360C4F8E4
:10211000148003685B1E0360E06A3B69984200D943
:102120003861254B00EB80008C3B03EB800040685E
:10213000A060D0F808C0C4F80CC0D0F808C0CCF833
:1021400004108160E06A00EB800003EB80016161B4
:1021500053F82010491C43F82010E06A3968C96A16
:10216000884201D946F8259010680028ADD10CB1FD
:10217000FEF740FFBC694CB1FFF72AFE08B146F8F4
:102180002590641E002CF7D1C7F8188056F825005A
:1021900050B14FF0010A386808494FF0805008608C
:1021A000BFF34F8FBFF36F8FFFF706F95046BDE8BF
:1021B000F0870000040000206001002004ED00E032
:1021C0001CB50024FEF72EFC0C48006858B10B48E3
:1021D0000321001DCDE900100023802208A10A4838
:1021E000FFF7D2FD04460CB120461CBD502080F301
:1021F0001188BFF34F8FBFF36F8FFEE744000020BD
:10220000546D722053766300991000082C22000848
:10221000000000209400000028010008C0220008EF
:1022200094000020942700004401000800000000F2
:10223000000000000000000000000000000000009E
:10224000000000000000000000000000000000008E
:10225000000000000000000000000000040000007A
:10226000000000000000000000000000000000006E
:10227000000000000000000000000000000000005E
:10228000000000000000000000000000000000004E
:10229000000000000000000000000000000000003E
:1022A00000000000AAAAAAAA0000000000A24A0496
:1022B00000000000000000000102030406070809F6
:04000005080000ED02
:00000001FF
